:020000040800F2
:10100000A039002069110008B92F0008252F000819
:10101000B52F0008512E00084130000800000000E4
:10102000000000000000000000000000BD2F0008CC
:10103000852E000800000000BB2F0008BF2F00080D
:101040008311000883110008831100088311000830
:101050008311000883110008831100088311000820
:101060008311000883110008892E000883110008ED
:101070008311000883110008831100088311000800
:1010800083110008831100088311000883110008F0
:10109000552E0008831100088311000883110008F1
:1010A00083110008831100088311000883110008D0
:1010B000831100088311000819300008831100080B
:1010C00083110008831100088311000883110008B0
:1010D00083110008831100088311000883110008A0
:1010E0008311000883110008831100088311000890
:1010F000831100088311000883110008000000001C
:1011000083110008000000002D3000088311000842
:10111000831100088311000883110008831100085F
:10112000831100088311000883110008831100084F
:101130008311000800000000000000008311000877
:101140006D2E000883110008831100088311000828
:10115000DFF810D000F0D6FB00480047E94C00084B
:10116000AFF30080A03900200648804706480047BA
:10117000FEE7FEE7FEE7FEE7FEE7FEE7FEE7FEE747
:10118000FEE7FEE7C12F000851110008002170B5ED
:101190000A464EF661260B4B5C6819802589AD071F
:1011A00008D569B9207300BF00BF1B7A0BB100BF1F
:1011B00000BF70BD013292B2B2424FF00101EDD1D9
:1011C0001A80EFE794350020002330B54EF66125F4
:1011D00013494A680B801489240603D4148904F443
:1011E000C0541CB101339BB2AB42F4D1138913F04C
:1011F00041030AD110734EF6612518460B801489FD
:10120000E40704D54BB9107B30BD9389EEE701307C
:1012100080B2A8424FF00103F1D10880F3E700BF8C
:101220009435002010B5002001F0ACFE0420FFF73B
:10123000ADFF0020FFF7C8FF0446012001F0A2FE29
:10124000204610BD10B50446002001F09BFE012091
:10125000FFF79CFF2046FFF7B7FFBDE810400120D5
:1012600001F090BE2DE9F84305460E461746FFF7FC
:10127000D9FF0123AB405CB244EA0003DBB29842E1
:1012800017D1022D13D0052D36D1AEB931E0022D84
:101290002FD11846FFF7D6FF184B93F909300BB141
:1012A000FFF7C0FF3846BDE8F84301F07DBE1EB928
:1012B000EFE7002EEBD0034698464EF66026FFF788
:1012C000B1FF431EDBB2FD2B814601D8404507D05C
:1012D000013E0120B6B201F067FEC846002EEED1F5
:1012E00044EA0803DBB29845D1D1022DD1D0052DB7
:1012F00002D103F0FB03CCE7BDE8F883943500206E
:1013000070B5064669B3202928BF202100200C466D
:1013100001F038FE0220FFF739FF0020FFF736FF0B
:10132000354615F8010BFFF731FFAB1BDBB29C42D2
:10133000F7D800214EF661250B460A4A5468118001
:101340002089000605D451B9BDE87040012001F0A4
:1013500019BE01339BB2AB424FF00101F0D11380B3
:10136000F2E770BD9435002038B504464CF2503594
:10137000FFF758FFFF2801D0C3070FD4012001F069
:1013800013FE681E85B2002DF2D14CB1FFF74AFF63
:10139000000240F010002080284638BD0120FCE704
:1013A0002046FAE738B504464CF25035FFF73AFFCD
:1013B000FF2801D083070DD5012001F0F5FD013D87
:1013C000F4D14CB1FFF72EFF000240F01100208055
:1013D000284638BD0120FCE72046FAE72DE9F04118
:1013E000002947D0202928BF20210F46064600208B
:1013F00001F0C8FD0320FFF7C9FE0020FFF7E4FE5F
:101400000020FFF7C3FEB7F1010E37D000254EF6DE
:101410006124A846DFF874C0DCF8040071190023C9
:1014200001E0A34204D002890133D2079BB2F8D570
:101430000135037BEDB275450B7080F80C80EDDB58
:101440002E4400234EF661251C46ACF8003004E023
:101450008BB2AB424FF0010415D00289591CD20760
:10146000F6D584B9037B0120337001F08BFD38463B
:10147000BDE8F0810F463846BDE8F081DFF80CC0CA
:10148000DCF80400DDE7ACF80030EBE79435002031
:101490002DE9F04105460124AC40E4430E46FFF738
:1014A000C1FE64B204EA0003DBB29842074621D0D1
:1014B0004EF66025FFF7B6FE431EDBB2FD2B8046DD
:1014C00001D8B84207D0013D0120ADB201F06CFD5A
:1014D0004746002DEED104EA0700C0B2B84209D059
:1014E00000F0FB00FFF7AEFE26B13046BDE8F0414C
:1014F00001F05ABDBDE8F08170B500242646114DBB
:10150000E2B2AB5C533B012B98BFAE54835C533BC0
:10151000012B98BF8654A956835641B11BB19942FD
:1015200004F10104ECD0994204DD012007E0002B16
:10153000FBDB05D08B42D4BF01204FF0FF3070BDE4
:101540001846FCE77801002010B50C46FFF7D4FFE1
:10155000002808DA4CB1FFF765FE000240F0770082
:101560002080012010BD0020FCE70120FAE72DE9D2
:10157000F047099C054691461E460778FFF7C0FED6
:101580000A2001F011FD4FF6FF78013EB6B2464544
:1015900005D12046FFF706FF70B9002047E0FA208A
:1015A00001F002FDFA2001F0FFFCFA2001F0FCFC42
:1015B000FA2001F0F9FCE8E74FF47A76BDF8203024
:1015C0004FF0000A5E434CF25033B6FBF3F601369F
:1015D0001FFA8AF39E42E0D94CF25038FFF722FE00
:1015E0008038C0B27E2824D80CB10023238049461D
:1015F0002846FFF7F3FE0A2001F0D6FC0021072061
:10160000FFF746FF00231A466978481C5E1C9BB210
:10161000984227DA29448B78934228D0002CBCD0FA
:10162000FFF700FE000240F0300020800020BDE8FF
:10163000F08708F1FF3801201FFA88F801F0B4FCA8
:10164000B8F1000FCAD154B1FFF7ECFD00022080C1
:10165000012001F0A9FC238843F0160323800AF13E
:10166000010AB5E7EB5C1A44D2B23346CEE72B78D9
:1016700023F08003BB420DD0362F01D1252B09D09A
:10168000002C8AD0FFF7CEFD000240F03100208010
:101690000020CCE700211548FFF756FF20BBAB78B0
:1016A000782B21D1002C3FF478AFFFF7BBFD00026F
:1016B00080B22080EB78032B11D8DFE803F015020D
:1016C000070B40F0450020800020B0E740F04600C6
:1016D000208062E740F0470020800020A7E740F02C
:1016E000480020800020A2E70120A0E72761000831
:1016F00030B504468FB00D4609B100230B80284653
:10170000FFF732FE00283FD00A210720FFF7C0FE76
:1017100001210A220846FFF7A5FD42238DF8183063
:1017200000231A488DF81A4006ACE218195C013300
:10173000102BD170F9D1164A03AB10685168127A98
:1017400003C31A70002303A88DF81530E218C15C9A
:1017500001330A2BD174F9D11B2300228DF81930E3
:101760001346A15C01320B441D2ADBB2F9D18DF87E
:10177000353000230195009320221E212046FFF7DB
:10178000F6FE003018BF01200FB030BDBF6000086A
:10179000CF6000082DE9F041002407462546DFF818
:1017A0004C80BD4208D14120FFF74CFD0A2001F0DA
:1017B000FBFB2046BDE8F08105F0DA0646F00106A5
:1017C0003046FFF73FFD00214046FFF7BDFE48B120
:1017D0000A2001F0E9FBFFF725FD864208BF01342E
:1017E0000135DEE7012001F0DFFBF4E7DF600008F0
:1017F0001FB502930023CDE9003300F0C1F805B016
:101800005DF804FB2DE9FF410B9C05460E460B4895
:10181000214617469846FFF797FE68B9BDF828306D
:101820000294CDE900833A4601233146284600F070
:10183000A7F804B0BDE8F0810020FAE71F610008B6
:101840002DE9FF410B9C05460E46174698460CB104
:101850000023238021460A48FFF776FE68B9BDF8C9
:1018600028300294CDE900833A46012331462846C8
:1018700000F086F804B0BDE8F0810020FAE700BF70
:10188000E760000870B505468AB00E4614460AB1F6
:10189000002313802046FFF767FDF8B10A210720D7
:1018A000FFF7F6FD01210A220846FFF7DBFC40F2B4
:1018B0001623ADF8083000238DF80B6018368DF82C
:1018C0000A500194354400932022052102A88DF886
:1018D0000C50FFF74CFE003018BF01200AB070BD5D
:1018E00040EA01039B0703D009E008C9121F08C0A2
:1018F000042AFAD203E011F8013B00F8013B521E22
:10190000F9D27047064C074D06E0E06840F001034D
:1019100094E8070098471034AC42F6D3FFF71CFC5C
:10192000406100086061000870B58C1810F8015B18
:1019300015F0070301D110F8013B2A1106D110F868
:10194000012B03E010F8016B01F8016B5B1EF9D16C
:101950002B0705D40023521E0DD401F8013BFAE7F2
:1019600010F8013BCB1A921C03E013F8015B01F85D
:10197000015B521EF9D5A142D8D3002070BD0000F2
:101980002DE9F04F91B01C9C07460E4692469946B1
:101990001A9DBDF86C800CB100232380002E00F04E
:1019A000ED80B9F1010F13D1B848FFF7A5FD00286C
:1019B00004A813DA0023E9569AB2C15419B10133CD
:1019C0000F2BF8D11A4610AB1A44002302F8303C12
:1019D0002046FFF7C9FC50B90025A4E02346142295
:1019E000294600F093FF0028F2D10546C5E0FFF735
:1019F00019FC00F07B0343F00203984205461DD01A
:101A00004FF47A7BFFF70EFCA84203900BD0012025
:101A100001F0CAFA0BF1FF3B039B1FFA8BFB1D463B
:101A2000BBF1000FEED105F07B0040F00200A842B0
:101A300004D0FFF707FC0A2001F0B6FA4FF48063E8
:101A4000B9F1010FADF820304FEA16238DF823309D
:101A50008DF822A08DF824604FF0000333D08DF86C
:101A6000253000210A469DF8210001308BB28342C7
:101A700010AD01F101012B4447DD03F8202C0023B8
:101A80009DF821100194033100930422C9B208A8E3
:101A9000FFF76DFD00289FD09DF82250002D00F02B
:101AA000CA801CB1FFF7BEFB000220809DF82230E7
:101AB000F63B092B00F2B680DFE803F0ABA29A9167
:101AC000887F766D642C8DF8259004A819569AB2FB
:101AD00081B90020931D9BB208A99AB2152A11D989
:101AE0004FEA18238DF8363016238DF837808DF89D
:101AF0002130B6E708AA1A440133102B9171E5D1C1
:101B00001A46E6E758540133E7E713F8203C1A4435
:101B1000D2B2ABE71CB1238843F012032380C82064
:101B200001F042FA00250A2201210220FFF79AFB68
:101B3000022001F039FA0F24FFF774FBFF2801D0CF
:101B400043070BD4013C0120A4B201F02DFA002C74
:101B5000F2D10A2201210220FFF784FBAE420CD809
:101B6000B6F5807F09D8F92E00F28E80142001F09E
:101B70001BFAF043C0B201F017FA2E46304611B0FE
:101B8000BDE8F08F002C3FF427AF2388002543F0F9
:101B900013032380C7E7002C3FF41EAF23880025E2
:101BA00043F014032380BEE7002C3FF415AF2388D5
:101BB000002543F015032380B5E7002C3FF40CAF5C
:101BC0002388002543F018032380ACE7002C3FF462
:101BD00003AF2388002543F019032380A3E7002CDB
:101BE0003FF4FAAE2388002543F01A0323809AE7D6
:101BF000002C3FF4F1AE238843F01B032380EBE677
:101C0000002C3FF4E9AE2388002543F01C03238019
:101C100089E7002C3FF4E0AE2388002543F01D0344
:101C2000238080E7002C3FF4D7AE2388002543F0C3
:101C30001F03238077E70B2001F0B6F9DFF85090FF
:101C4000AE427FF670AFA6EB0508B8F1200FCCBF0F
:101C50004FF020081FFA88F85FFA88F17819FFF72B
:101C60004FFB99F909305BB90B2001F09DF9204633
:101C7000FFF798FB00283FF456AF4544ADB2DFE7CD
:101C8000062001F091F9F2E70A2074E7EF600008FE
:101C9000943500202DE9F0478AB00546DDE9126948
:101CA0008A469846149C17460AB1002313700CB15B
:101CB000002323802046FFF757FB88B30A21072023
:101CC000FFF7E6FB01210A220846FFF7CBFA8DF861
:101CD0000BA00AF1310A8DF80A50554440F22F2327
:101CE0008DF80C500025ADF80830019400952B4676
:101CF0002022052102A8FFF73AFC88B19DF80C309C
:101D000043B3002C4BD0FFF78DFA9DF80C20000256
:101D100083B2FF2A238006D1284643F05A0323804A
:101D20000AB0BDE8F087FE2A04D143F05B032380AC
:101D30002846F5E7FD2A04D143F05C0323802846BA
:101D4000EEE7FC2A0CBF43F05D0343F0350323802C
:101D50002846E5E717B19DF80D303B705EB19DF860
:101D60000E3033709DF80F3073709DF81030B370E3
:101D70009DF81130F370B9F1000F07D09DF81220D3
:101D80009DF8133003EB0223A9F80030B8F1000FDF
:101D900007D09DF81430012088F80030C0E72046B5
:101DA000BEE70120BCE72DE9F0418EB0149D04464A
:101DB0000F46164698460DB100232B80002302954E
:101DC000CDE900330DF117020DF11601384600F090
:101DD0002AFD002800F09B809DF81630022B78D851
:101DE00053B19DF81720002A73D03CB9012B5FD165
:101DF000062A03D157246DE0002CFBD02846FFF7BC
:101E0000B3FA002800F083800A210720FFF740FB87
:101E100001210A220846FFF725FA002C0CBF1A23DD
:101E200019238DF8183001238DF81A708DF81930A8
:101E3000A6B133788DF820808DF81B3073788DF83B
:101E40001C30B3788DF81D30F3788DF81E304FEAD2
:101E500018238DF81F3007238DF819300022114602
:101E60009DF8190001300B460EAC01319842C9B201
:101E7000234439DA002403F8202C06A801950094A5
:101E800023462022FFF773FB002840D09DF81A302C
:101E90007BB3F42B2DD0002D39D0FFF7C3F99DF87B
:101EA0001A30C3F1800343EA00202880204618E05E
:101EB0000EAA02F8204D2346CDE9014500942146A3
:101EC0003846FFF7E7FE60B19DF81830002B95D13A
:101ED00090E75424DDB1FFF7A5F944EA00202880FB
:101EE00000200EB0BDE8F08113F8203C1A44D2B2B5
:101EF000B9E79DF816300BB90120F2E70824FA2063
:101F0000013C01F051F814F0FF04F8D1F4E700208F
:101F1000E7E700002DE9F0438BB0129C814688462C
:101F200017461E460CB10023238021462C48FFF79C
:101F30000BFB054620B1002528460BB0BDE8F08319
:101F40002046FFF711FA0028F5D00A210720FFF7F5
:101F50009FFA01210A220846FFF784F92D238DF804
:101F60000830F31C8DF809302B468DF80C608DF885
:101F70000A908DF80B80B6B29AB2B24223D30023F6
:101F800019469DF8090001308AB282420AAE01F179
:101F9000010132441DDD02F8203C0023019400932E
:101FA0002022C9B202A8FFF7E2FA0028C4D09DF8A7
:101FB0000A309BB1002CBFD0FFF734F9000240F08B
:101FC00041002080B8E7F95C02AA1A44517101333C
:101FD000D2E712F8202C1344DBB2D5E70125ABE79A
:101FE0001F6100082DE9F04F8DB083460E46169F05
:101FF000189C9846E3B193F800900CB1002323801D
:102000004FF47A7A00250AFB02FA554512D12CB119
:10201000FFF708F9000240F0100020800025B8F119
:10202000000F01D088F8009028460DB0BDE8F08F71
:102030009946E2E700F0EEFB20B9012000F0B4FF82
:102040000135E2E7FFF7EEF800F05F0343F002032B
:10205000984282461AD04FF47A75FFF7E3F850455C
:10206000039008D0012000F09FFF6B1E039A9DB2E1
:102070009246002DF1D10AF05F0040F00200504579
:1020800004D0FFF7DFF80A2000F08EFF40F20123B2
:10209000F2B2ADF810308DF81320330A03328DF808
:1020A000123013448DF8143000230194009313224E
:1020B000052104A8FFF75BFA0028AFD09DF8123085
:1020C00013B31CB1FFF7AEF8000220809DF8123068
:1020D000FE2B14D00AD8FD2B21D0002C00F0C48098
:1020E0002388002543F02F03238098E71CB1238821
:1020F00043F022032380C82000F056FF8EE71CB176
:10210000238843F0230323809DF814209DF8153085
:1021100003EB02239BB29E4201D31E4607E034B17B
:10212000238813F0FF0F02D143F0240323804F488C
:102130009DF81390FFF7E0F90028179B6ADD3BB18B
:102140009DF81B209DF81A3003EB0223179A138089
:102150005FB19DF81E303B709DF81F307B709DF87D
:102160002030BB709DF82130FB70414B93F9092062
:10217000039312B90B2000F017FF00273D46AE4233
:102180007FF64DAF039B93F9091000294ED105222C
:102190001046FFF767F8012000F006FF4CF2503AB6
:1021A000FFF740F80CB103022380002844D010F060
:1021B000200041D104B12080711B2029A8BF20211B
:1021C0000BEB0500C9B2FFF709F90544ADB2AE4209
:1021D00002D8012000F0E8FEFFF724F8FF2841D0E4
:1021E00010F04007CBD0AE427FF619AF761B202E01
:1021F0003FF715AFFFF716F800283FF410AF83063E
:102200003FF50DAF0BEB0500F1B2FFF7E7F8054422
:10221000ADB204E713B10023179A1380002FA4D0A6
:1022200000233B707B70BB70FB709EE70122002196
:102230000520FFF717F8B1E7012000F0B5FEBAF16D
:10224000010AADD11CB1238843F020032380002F65
:10225000B2D10A210520FFF71BF9052000F0A4FEEA
:1022600001278CE700278AE72546D8E6FF600008AB
:10227000943500202DE9F0478AB0139D80460F4623
:10228000924699469DF848600DB100232B8029465F
:102290003648FFF759F9044620B1002420460AB019
:1022A000BDE8F0872846FFF75FF80028F5D00A213F
:1022B0000720FFF7EDF801210A220846FEF7D2FFBA
:1022C0004B461B2B28BF1B239A1C8DF80920224646
:1022D0008DF808808DF80A608DF80B709BB291B272
:1022E0008B4207D902A911441AF8020001321B2AB5
:1022F0000871F4D100239DF809001946013003E06C
:1023000012F8202C1344DBB28AB282420DF1280C61
:1023100001F101016244F3DDB8F1280F02F8203C1D
:102320001FD1FF2F0CBF00230A23002E40F6990275
:1023300008BF0122C9B2CDE9002502A82022FFF77B
:1023400016F90028AAD09DF80A4064B9002DA5D03E
:10235000FEF768FF9DF80A30803343EA00202880AA
:102360009CE70023E1E7012498E700BFF76000083D
:102370002DE9F04F8BB0189E05460C4692469946C3
:102380009DF850B0BDF85470BDF858800EB10023D0
:1023900033803046FEF7E8FF002850D00A2107209E
:1023A000FFF776F801210A220846FEF75BFF4FEAA5
:1023B00018238DF80A303B0A8DF80C3000238DF875
:1023C00008A08DF80B808DF80D708DF80EB01FFAF7
:1023D0008BF299B2914235D300210A460BF10503E5
:1023E0008DF809300BF1060B8BB25B450AA801F1A1
:1023F000010103442DDD03F8202C9DF85C309DF88D
:1024000009101E2B28BF1E23C3EB431203EB8203CC
:10241000DB009BB203310093019600232022C9B256
:1024200002A8FFF7A4F850B19DF80A30E3B99DF86F
:102430000920227021789AB291420FD801200BB066
:10244000BDE8F08F19F8030002A91944C8710133DF
:10245000BFE713F8203C1A44D2B2C5E702AA1A44D7
:102460009278EA540133E5E70020E8E70023F7B566
:102470001646364A0D4620F480619142019308BF0A
:102480000123334C606023720EB100233380038834
:10249000304F03F0380301930188BD4221F0380129
:1024A0004FEA01414FEA11410180038843F01003D4
:1024B0000380018821F001014FEA01414FEA1141F7
:1024C0000180314635D90120FFF712F9002835D0B7
:1024D0006368BD42198821F038014FEA01414FEA93
:1024E00011411980019A198842EA010292B21A80B8
:1024F00027D8FA2000F058FDFA2000F055FDFA2008
:1025000000F052FDFA2000F04FFD00213346124A40
:10251000084600F008F988B11048FEF7EDFF0028E2
:10252000ACBF012300230E486372FEF7E5FF0120D4
:1025300005E00220FFF7DCF80028C9D1002003B035
:10254000F0BD1A8842F001021A80D2E7003800403C
:1025500094350020FF2C310178010020DF60000855
:10256000176100082DE9F0438DB0159C06460D4615
:10257000604821469DF850808DF80F208DF80E3070
:10258000FEF7E2FF0746002870D000239DF80F7089
:1025900073739DF80E90AB7304B123802046FEF751
:1025A000E3FE20B9002738460DB0BDE8F0830A21CC
:1025B0000720FEF76DFF01210A220846FEF752FEB2
:1025C00041F623530CA820F8203D0223013E16F8C3
:1025D000012F22B90CA90B4403F8202C03E0C254AC
:1025E00001330F2BF3D10F23013D15F8012F22B931
:1025F0000CA90B4403F8202C03E0C25401331C2B1C
:10260000F3D1002209F1FF33052FDBB228BF0027E9
:102610000D2B28BF4FF0060913468DF82C708DF84E
:102620002D908DF82E80815C01320B441F2ADBB285
:10263000F9D18DF82F302022002301940093114608
:102640004FF47A73FEF793FF0028ABD09DF8127019
:1026500057B9002CA6D0FEF7E5FD9DF81230803367
:1026600043EA002020809EE701279CE79EB1324686
:1026700006F12001931B12F8010BDBB210B18A4264
:10268000F8D11F2300210194009132462620FFF744
:10269000F1FD002887D0ADB12A4605F14101531B59
:1026A00012F8010BDBB210B18A42F8D140230022AC
:1026B0000194009201212A462620FFF7DBFD002825
:1026C0003FF471AF0023019400930DF10E0201233A
:1026D00002212620FFF7CEFD00283FF464AFCDE9AC
:1026E000008401230DF10F0203212620FFF7C2FD14
:1026F000074658E7F76000081FB504AC04F8011D51
:102700000123009203212246FFF704FC04B010BD10
:10271000002307B51A46009101460120FFF743FB4D
:1027200003B05DF804FBF0B507468BB00E461546C6
:102730001C460BB1002323802046FEF715FEB8B3DC
:102740000A210720FEF7A4FE01210A220846FEF70F
:1027500089FD1F23ADF808308DF80A30002301945D
:1027600000932022032102A8FEF701FF00B377B1F6
:102770009DF80A309DF80B2002EB03229DF80C30E7
:1027800003EB02229DF80D3003EB02233B6016B1F0
:102790009DF80E3033709DB100239DF80F109AB252
:1027A0008A4202D2172B05D11A4600230120AB54CE
:1027B0000BB0F0BD02AA1A44127AEA540133EEE7D4
:1027C0000120F5E730B505468BB00C4609B1002372
:1027D0000B802046FEF7C8FDD0B10A210720FEF786
:1027E00057FE01210A220846FEF73CFD1023ADF8F2
:1027F00008308DF80A300023019400932022032131
:1028000002A8FEF7B4FE18B101209DF80A302B7023
:102810000BB030BD08B5FEF705FDFF2814BFC0F3AF
:102820000010002008BD2DE9F0478AB0149F8246B1
:10283000DDE912480E46154699460FB100233B804C
:102840003846FEF791FD38B30A210720FEF720FE37
:1028500001210A220846FEF705FD4FF48A7301970D
:102860000027ADF808308DF80AA000970AF1150A84
:102870003B462022042102A88DF80BA0FEF777FE2C
:1028800050B19DF80B3053B106B137700DB901202E
:1028900002E0002301202B700AB0BDE8F08716B1DA
:1028A0009DF80C30337015B19DF80D302B70B9F1D7
:1028B000000F07D09DF80E209DF80F3003EB022388
:1028C000A9F8003064B10DF10F02631E04F10F018D
:1028D00012F8010F03F8010F8B42F9D10023E373C3
:1028E000B8F1000FD3D09DF821209DF8223003EBE2
:1028F0000223A8F80030CAE71FB5069C0294002402
:10290000CDE90044FFF76EFB04B010BD2DE9F04F98
:102910001C46002391B0074616468DF81F308A46A4
:1029200061B924B90025284611B0BDE8F08FFEF743
:1029300079FC000240F04F002080F3E70B4601F5E0
:102940008072A3EB0A0813F9011B1FFA88F819B16A
:102950009342F6D14FF4807808F1FF33FE2BE0D894
:10296000B8F11B0F2AD8002C61D121468B48FEF705
:10297000EBFD05460028D5D108AA9046884B03F107
:10298000100E9446186859680833ACE80300734584
:102990006246F6D100231AF9031018F90320914278
:1029A00040F0A0800133102BF5D1002318F803204C
:1029B000FA540133102BF9D10125B4E721467948A7
:1029C000FEF7C2FD0028CED104B120804FF0000BED
:1029D000A8EB0B09B9F1170FCCBF4FF018095FFA3C
:1029E00089F9CDE90364CDE901B8CDF800900AEB8F
:1029F0000B0336220DF11F0108A8FFF7B9FC0546AD
:102A0000002856D1002C8DD0FEF70CFC9DF820300C
:102A1000000280B2FC2B20803FD02FD89C2B44D0CA
:102A200001D3FA2B3DD240F03D0020807BE700230C
:102A300023809AE712F8202C1344DBB27CE008EBE9
:102A40000300C078F854002800F0A48001330F2B55
:102A500040F09C8019469DE0002C3FF463AFFEF7E8
:102A6000E1FB9DF82230000280B2FA3B2080052B6A
:102A7000D9D8DFE803F01616120E0A06FE2B04D092
:102A800007D940F03A0020804DE740F03B0020801D
:102A900049E740F03C00208045E740F05E002080A0
:102AA00041E740F05F0020803DE740F04F0020808C
:102AB00039E7CB441FFA8BFBC34589D300239DF82C
:102AC0001F009AB2904202D80023BB5474E708A9B1
:102AD00019444978F9540029F6D001330F2BF0D16D
:102AE0001A46F1E72046FEF73FFC00283FF41AAFF4
:102AF0000A210720FEF7CCFC01210A220846FEF736
:102B0000B1FB25238DF8203000238DF822601AF9BF
:102B1000031008EB03009AB2C17019B101331B2BEB
:102B2000F5D11A46D11C10AB5818002300F8203CF0
:102B3000184602328DF8212082B291420DF1400CEC
:102B400000F101006244BFF675AF1E2E28BF1E269D
:102B500002F8203CC6EB461306EB83069DF82110D5
:102B6000F6000331B6B20194009600232022C9B2C8
:102B70004046FEF7FCFC00283FF4D4AE9DF822301E
:102B8000002B7FF469AF9DF82120023A934299B25D
:102B9000FFF655AF002301257B54C4E6EF60000823
:102BA000076100082F61000870B505468AB00E461F
:102BB00014460AB1002313802046FEF7D5FB80B3EC
:102BC0000A210720FEF764FC01210A220846FEF7CD
:102BD00049FB40F21523ADF8083000238DF80B6057
:102BE00017368DF80A5001943544009320220521B0
:102BF00002A88DF80C50FEF7BAFC90B11424FA200C
:102C000000F0D2F9FA2000F0CFF9013CFA2000F0F0
:102C1000CBF9A4B2FA2000F0C7F9002CEFD19DF84F
:102C20000A000AB070BD00002DE9F04F994600235C
:102C300093B01E9C06468A4693469DF870809DF888
:102C40007470ADF8163004B1238021467D48FEF73C
:102C50007BFC60B1022E0AD9FEF7E4FA00250002DF
:102C600040F077002080284613B0BDE8F08F214661
:102C70007548FEF769FC88B90DF116014046FFF76B
:102C800047FD054650B9BDF81620D3B2553B012B80
:102C900004D80CB90025E6E72280E4E76B48FEF78C
:102CA0002BFC002806AD62DA00231BF903109AB250
:102CB000E95419B101330F2BF7D11A4612AB1A445C
:102CC000002302F8303C2046FEF74EFB0028E1D0FE
:102CD0000A210720FEF7DCFB01210A220846FEF745
:102CE000C1FA41F218630022ADF828304FEA1A23E6
:102CF0008DF82A608DF82B308DF82CA00AA8A956E3
:102D000093B200293CD1002105339BB29AB2142A18
:102D10003DD900224FEA19238DF83D3013468DF836
:102D20003E908DF83F80815C01320B44182ADBB263
:102D3000F9D14FF000098DF840300194CDF80090A2
:102D4000052320221921FEF712FC0028A2D09DF8AD
:102D50002A50FDB1002C9DD0FEF764FA9DF82A3070
:102D60004D46C3F1800343EA002020807BE72346E1
:102D70003A4659462846FFF7C9FD0028A3D189E7FE
:102D800083180132102A5971B9D11346BBE7C154D7
:102D90000133BBE716F0FD0F51D006F00F06012EF0
:102DA0007FF478AFA946AA4607EB87074F453CD08A
:102DB000C8268DF815A0FA2000F0F6F8FA2000F0E9
:102DC000F3F8FA2000F0F0F8FA2000F0EDF8013EF8
:102DD000F1D1CDE90164009633460DF1150231467B
:102DE0004046FFF720FDE8B19DF81530062B19D8B5
:102DF000DFE803F00418252525250E00002C3FF4FC
:102E000032AFFEF70FFA000240F0330020802AE7CD
:102E1000002C3FF428AFFEF705FA000240F039001D
:102E2000208020E709F10109C0E7002C3FF432AF10
:102E3000FEF7F8F9000240F03400208013E7012586
:102E400011E700BF3761000827610008EF60000844
:102E500000BFFEE710B5002202490348007801F0E8
:102E600003F910BD006400400200002010B50022EC
:102E700002490348007801F0F7F810BD00680040EF
:102E800002000020704700003EB5102001F068FDF0
:102E9000FFF7C0FC002841D0FF202149087002A89C
:102EA00001AB0122114600901D48FFF725FD0446A5
:102EB000002C33DD9DF80400012807D11848007864
:102EC00010B900F095FA00E000BF27E09DF804007B
:102ED000022803D09DF8040003281FD11048007871
:102EE0000C2819D2DFE800F0060708090A0B0C0DC0
:102EF0000E0F151000BF00BF00BF00BF00BF00BF16
:102F000000BF00BF00BF00BF0549087802F0A4FE63
:102F100003E001F0A1FA00E000BF00BF3EBD0000E9
:102F20003301002000BFFEE7014601F00F0109292F
:102F300003D801F13000C0B2704701F13700C0B2D0
:102F4000FAE7000070B50446002500BF02210C48D6
:102F500002F038FA0028F9D02146094802F003FAB5
:102F600000BF0121064802F02DFA18B928466D1C51
:102F70006428F6D3024802F0F2F9C0B270BD000036
:102F80000030014010B504462CB101221021054843
:102F900001F08EFD04E000221021024801F088FDBE
:102FA00010BD00000010014010B50446204601F09D
:102FB0008CFA10BD00BFFEE770477047704770473E
:102FC00010B51248006840F47000104908601048BD
:102FD000006840F001000E49086000204860C862A7
:102FE000084600680B490840094908604FF47F0013
:102FF00088600846006820F48020086002F082FAA9
:103000004FF48051C80302F033F810BD88ED00E0A2
:1030100000100240FFFFF6EA10B502F0A7FA012106
:10302000014802F0E3FD10BD0008004010B502F0B9
:103030001FFB0121014802F0D9FD10BD000C00402A
:1030400000BFFEE702E008C8121F08C1002AFAD13B
:1030500070477047002001E001C1121F002AFBD118
:103060007047000030B51346002205E010F8014B10
:103070000E4DAC54541CE2B28A42F7DB00240C4DD6
:103080002C700C4D2C800C4D2C800C4C217001248C
:103090000B4D2C704EF6602494FBF3F4094D2D7803
:1030A00094FBF5F4044D2C8030BD000092340020D8
:1030B00071010020740100207601002070010020C1
:1030C000340100204900002000EE100AB8EE400A4A
:1030D000F2EE040A70EE200A00EE100AB8EE400A82
:1030E00020EE800ADFED070A80EE201AB7EE000A14
:1030F00031EE000ABCEEC00A10EE101A024A11703E
:10310000704700000000AC423501002010B54FF4BC
:10311000C06001F0F3FF01210A4801F081FD40F297
:10312000046001F0EBFF4FF4005302221021064827
:1031300001F010FD4FF4804302221021024801F0FB
:1031400009FD10BD000230000010014000B587B03D
:1031500040F2026001F0D2FF4FF4C06001F0CEFFF8
:103160004FF4807303221821284801F0F3FC40F249
:103170000B6001F0C3FF264802F01AFC03A802F01E
:1031800044FD40F2AF40ADF80C000020ADF80E0059
:10319000ADF81000092005900020ADF818008DF85A
:1031A0001A0003A91A4802F0CBFC684602F0F7FBAC
:1031B0000120ADF800000020ADF80200ADF80400D9
:1031C000ADF80600ADF80800ADF80A006A46002127
:1031D0000F4802F081FA052200210D4802F09FFB02
:1031E000602200210A4802F06DFB002211460848C7
:1031F00002F0A8FB0021064802F0FBFC044802F0A4
:1032000065FA034802F096FC07B000BD00080140D3
:10321000002C01403648007836490978884211DB95
:103220000020354908703548006820F400403349D3
:10323000086032484438006820F080002F49443943
:10324000086070472C48007800B9FAE72C480088DD
:103250002C490988884205DA2948008858BB244847
:10326000007840BB22490A780978491C204B197024
:103270002549885C254931F81010204A183A116018
:1032800011460968224A12785143090A1B4A103A2A
:1032900011601A49096841F40041184A1160174940
:1032A0004439096841F08001144A443A116001210F
:1032B000134A1180C5E713480088401E1049098849
:1032C00088420DD10D48006820F400400B49086089
:1032D0000A484438006820F08000084944390860F2
:1032E00007480088401C0649088000BFA9E7000085
:1032F000710100207001002034010020442C0140A5
:103300007401002076010020923400203601002054
:103310003501002000BF024800780028FBD170472B
:10332000340100200C49096841F001010A4A11608A
:103330001146096821F47C511160114609684FF467
:103340007C5202EA00221143034A116011460968C7
:1033500021F001011160704700660040FEB504468F
:103360002048844201D1002000E00E20064614B11E
:103370001C48844203D100201B49087002E00E2043
:103380001A49087000202346024601460090304644
:1033900000F00EFF0020CDE90004711CC9B20E46FA
:1033A0000290084600231A46194600F041FF002506
:1033B0000AE0002071190090C8B22346002211468D
:1033C00000F0F6FE681CC5B20D2DF2DB14B1054805
:1033D000844203D100200449087002E00E20034912
:1033E0000870FEBD006400400000002001000020C5
:1033F00038B500200C49087008E000F017F8C4B296
:10340000242C01D0232C00D100E000E0F5E700BF20
:103410000548007830B10020009002220121684662
:1034200002F070FD38BD0000550000202DE9FC4180
:103430002C480078402806D102202B4908704FF60E
:10344000FF70BDE8FC8129480078264909780844C6
:10345000C4B224480078C0F14000C5B2402C03DB60
:10346000A4F14000C4B203E020480078281AC5B295
:10347000012D05DA02201C4908704FF6FF70E0E7C5
:10348000C4EBC40000EB4000194901EB800701A820
:103490000090542005FB00F1002301223846FFF77D
:1034A0002BFA06465420B6FBF0F0C4B2C4EBC400BD
:1034B00000EB4000B6EB800F03D004200A490870EF
:1034C00007E097F84E00012800D100E000200949EC
:1034D000087004480078204402490870BDF80400D0
:1034E000AFE70000540000204E00002053000020F1
:1034F000901700205500002010B596B02FE01B4813
:103500000078C0EBC00000EB4000194A02EB8001DC
:10351000542201A8FEF7E4F99DF8540001F040FEA2
:10352000044601A900F054FC10480078401CC0B2C9
:103530000E490870402803DB0846007840380870C0
:103540000C480078401E0B4908700B480078FA2898
:1035500004DA09480078401D0749087000BF054893
:1035600000780028CBD116B010BD00005300002019
:1035700090170020540000205600002000B58BB0AA
:1035800008A9002000F09CFE4E4800F0A9F84E4823
:1035900000F0A6F800208DF8240001208DF8250009
:1035A00000208DF82600494800788DF8270001207A
:1035B0008DF828008DF8290000208DF8200008A93A
:1035C000404800F04DFA414840788DF8270008A99E
:1035D0003D4800F045FA3E4801683A4800F0B6F927
:1035E00008B901F04DF93A484168374800F0AEF9A2
:1035F00008B901F045F902A9022000F061FE354842
:1036000000788DF8080001208DF809008DF80A0077
:1036100004208DF804000020009004208DF805009F
:10362000CDF80CD02C48007808B9002000E0082024
:103630000490002005902748007818B102A921487D
:1036400000F081F8234840788DF80800224840783F
:1036500008B9002000E0082004901E48407818B106
:1036600002A9194800F06FF81A48007820B11B48E9
:103670000168144800F04EF81648407820B1174809
:103680004168114800F046F80E20FFF74BFE0D4848
:10369000FFF764FE0C48FFF761FE012200211420B1
:1036A00001F086FC02220021402001F081FC022171
:1036B000044800F0A7FA0221034800F0A3FA0BB077
:1036C00000BD0000006400400068004005000020CC
:1036D0000C00002003000020070000201400002040
:1036E00010B504460A48844208D140F2194001F05E
:1036F00025FD40F2194001F011FD07E040F21A40AB
:1037000001F01CFD40F21A4001F008FD10BD000060
:103710000064004070B504460D4601260121204694
:1037200000F03FFE012804D1284600F029FFE062A6
:1037300000E000260221204600F033FE012800D0E0
:103740000026304670BD70B502464FF6FF74002368
:1037500009B9002070BD106820F0020010601068E8
:1037600040F00100106000E0641E506800F00100AD
:1037700008B9002CF8D1506800F0010008B9002009
:10378000E8E7087C4FF0E06505EA00604D7C4FF407
:10379000702606EA054528438D7C4FF4E00606EACC
:1037A000055528438D8A6D1EC5F309052843D0624F
:1037B000D1E9025040EA05034878012802D123F0FC
:1037C000040301E043F004038878012817D143F093
:1037D0001003486888B14868007800F0200003436F
:1037E0004868007900F07F004D686D794FF4FE461F
:1037F00006EA05252843906203E00020AAE723F0AB
:1038000010030878012802D143F0010301E023F0FE
:1038100001031362106820F0010010604FF6FF747E
:1038200000E0641E506800F0010008B1002CF8D1DF
:103830000CB900208EE701208CE7000010B50021B4
:10384000837A012202FA03F13E4A126842F0010231
:103850003C4B1A603B4A1C3212688A43394B1C337A
:103860001A60C289DAB9374A0C3212688A43354B7A
:103870000C331A60C288344B03EA024243881A436D
:103880004389304C403444F8332082882E4B03EA7D
:10389000024203881A43438904EBC3035A60C28976
:1038A000012A1BD1274A0C3212680A43254B0C33DC
:1038B0001A600288244B03EA024243881A43438970
:1038C000204C403444F8332082881F4B03EA0242E4
:1038D000C3881A43438904EBC3035A6082893AB907
:1038E000184A121D12688A43164B1B1D1A6006E007
:1038F000144A121D12680A43124B1B1D1A600289DA
:103900003AB9104A143212688A430E4B14331A60C3
:1039100006E00C4A143212680A430A4B14331A6048
:10392000027C012A06D1074A1C3212680A43054B61
:103930001C331A60034A126822F00102014B1A601C
:1039400010BD0000006600400000FFFF2DE9F041BF
:1039500004460E464FF001081848864229D8012136
:10396000204600F01EFD012818D1E76907F0404706
:10397000256A05F0010058B945F001052562304679
:1039800000F0B4FD3843E06125F00105256207E051
:10399000304600F0ABFD3843E06101E04FF0000835
:1039A0000221204600F0FDFC012804D04FF0000861
:1039B00001E04FF000084046BDE8F08140420F00B2
:1039C00010B540F2197001F099FB40F21A7001F045
:1039D00095FB40F2036001F091FB4FF4C06001F0F1
:1039E0008DFB4FF48073032248211B4801F0B2F88D
:1039F0004FF4007303221821174801F0ABF84FF47D
:103A0000805303224821144801F0A4F84FF40053D6
:103A100003221821104801F09DF801214FF4EA100B
:103A200001F0FEF800210D4801F0FAF80823032206
:103A30001021094801F08EF8102303221946064888
:103A400001F088F81021044801F030F808210248FC
:103A500001F02CF810BD0000000C014040002000D7
:103A6000F0B502464FF6FF740020156825F00205F8
:103A70001560156845F00105156000E0641E556885
:103A800005F001050DB9002CF8D1556805F00105C8
:103A90000DB90020B5E0136A03F001057DBB43F0CA
:103AA000010313620D784FF0404606EA85754E78A3
:103AB0004FF0F85707EA066635438E784FF47027C3
:103AC00007EA06468F784FF4E05C0CEA87173E431E
:103AD0003543CE784FF4E00707EA0656CF784FF427
:103AE000C04C0CEA87273E4335434E89761EC6F309
:103AF00009063543D56123F00103136229E0FFE78E
:103B00000D784FF0404606EA85754E784FF0F8572D
:103B100007EA066635438E784FF4702707EA0646B3
:103B20008F784FF4E05C0CEA87173E433543CE783C
:103B30004FF4E00707EA0656CF784FF4C04C0CEA82
:103B400087273E4335434E89761EC6F30906354323
:103B5000D5610D79012D04D1156845F080051560FA
:103B600003E0156825F0800515604D79012D04D11D
:103B7000156845F04005156003E0156825F040051F
:103B800015608D79012D04D1156845F0200515606B
:103B900003E0156825F020051560CD79012D04D1CD
:103BA000156825F01005156003E0156845F010054F
:103BB00015600D7A012D04D1156825F008051560F2
:103BC00003E0156845F0080515604D7A012D04D114
:103BD000156845F00405156003E0156825F0040537
:103BE0001560156825F0010515604FF6FF7400E0BB
:103BF000641E556805F001050DB1002CF8D104B123
:103C00000120F0BD42690A4342617047F8B50026C1
:103C1000002500F5D87707EB01173F6807F0040788
:103C20001772177A3FB900F5D87707EB01173F688D
:103C30007F0D176006E000F5D87707EB01173F68A6
:103C4000FF08576000F5D87707EB01173F6807F0CA
:103C50000207577200F5DA7707EB01173F683F0A52
:103C600082F84B7000F5DA7707EB01173F6807F031
:103C70008007FF0982F84C70076A07F00106002EE2
:103C800051D192F84C70EFBB00F5DA7707EB0117D2
:103C90003F6807F00F07977200F5DC7707EB011715
:103CA0003F68D77200F5DC7707EB01173F684FEAF2
:103CB000172C82F80CC000F5DC7707EB01173F6882
:103CC0004FEA174C82F80DC000F5DC7707EB0117BF
:103CD0003F684FEA176C82F80EC000F5DE7707EBFD
:103CE00001173F68D77300F5DE7707EB01173F68D0
:103CF0004FEA172C82F810C000F5DE7707EB0117AA
:103D00003F6800E00DE04FEA174C82F811C000F563
:103D1000DE7707EB01173F684FEA176C82F812C095
:103D200049E000BFFEE700F5DA7707EB01173F68CF
:103D300007F00F05082D01D8957206E0A5F10907D7
:103D4000DFF888C01CF80770977200F5DA7707EB88
:103D500001173F68C7F3401782F84D7000F5DA7716
:103D600007EB01173F68C7F3001782F84E70977A88
:103D7000BB08012B04D1977A042F01D05F1CFBB242
:103D800002F10B0700973BB900F5DC7707EB011751
:103D90003C68009F3C600EE00BE000F5DC7707EB31
:103DA00001173C68009F3C60009F3F1D00975F1E0D
:103DB000FBB2002BF1D121B9C76847F02007C760DB
:103DC00003E0076947F020070761F8BDB860000805
:103DD0002DE9F84103460A46002100240026002769
:103DE0000025986800F08060B0F1806F00D110E08D
:103DF000986800F00060B0F1006F01D1012108E087
:103E0000986800F08050B0F1805F01D1022100E09D
:103E10000321032902D10320BDE8F88103F5C07016
:103E200000EB0110006800F0010C03F5C07000EB1E
:103E30000110C0F800C0107AB8B91088DFF8FCC1D2
:103E40000CEA405092F809C040EA0C0003F5C07C2F
:103E50000CEB011CDCF800C040EA0C0003F5C07C50
:103E60000CEB011CCCF800001AE06FF0070C506856
:103E70000CEAC00092F808C040EA0C0092F809C0B1
:103E800040EA0C0003F5C07C0CEB011CDCF800C020
:103E900040EA0C0003F5C07C0CEB011CCCF80000E0
:103EA00092F84B00F0BB03F5C27000EB0110006804
:103EB00020F0BF0C03F5C27000EB0110C0F800C089
:103EC00003F5C27000EB0110006892F80AC040EAE6
:103ED0000C0003F5C27C0CEB011CCCF80000907BBD
:103EE0004FF07F4C0CEA006092F80DC04FF47F0851
:103EF00008EA0C4C40EA0C0092F80CC04FF47F48E2
:103F000008EA0C2C40EA0C0092F80BC040EA0C00C6
:103F100003F5C47C0CEB011CCCF80000907C4FF046
:103F20007F4C00E01CE00CEA006092F811C04FF4F6
:103F30007F0808EA0C4C40EA0C0092F810C04FF4DD
:103F40007F4808EA0C2C40EA0C0092F80FC040EAC7
:103F50000C0003F5C67C0CEB011CCCF800005EE005
:103F6000186A00F00107002F57D0907A082802D86D
:103F7000907A054317E000240AE0907ADFF8C0C089
:103F80001CF804C0604501D1012603E0601CC4B2E6
:103F9000072CF2D300BF012E03D104F10900054321
:103FA00001E000BFFEE792F84C00400192F84DC0DE
:103FB00040EA0C1092F84BC040EACC10054303F5E0
:103FC000C27000EB01100560907A8408012C04D1C6
:103FD000907A042801D0601CC4B202F10B0000905A
:103FE0004CB90098D0F800C003F5C47000EB011084
:103FF000C0F800C013E00DE00098D0F800C003F551
:10400000C47000EB0110C0F800C00098001D0090C3
:10401000601EC4B2002CEFD101E000BFFEE703F543
:10402000C07000EB0110006840F0010C03F5C07097
:1040300000EB0110C0F800C00846EDE60000E0FF0C
:10404000B860000800200449087004490870044959
:104050000870044908707047510000205200002089
:1040600053000020540000202DE9F04180460C460A
:10407000174626480078402810D1012024490870AE
:1040800027B9E06840F02000E06003E0206940F0DC
:104090002000206101F0AAFABDE8F0811D480078F7
:1040A0001A4909780844C6B2402E02DBA6F1400046
:1040B000C6B206EB460000EBC600174901EBC0058F
:1040C00085F855801548007885F854001348007825
:1040D000401C1249087000F0C5F928652A46394687
:1040E0002046FFF793FD09480078401C07490870F7
:1040F0000B480078FA2804DA09480078401D08497E
:10410000087001F06DFA00BFC6E700005200002001
:104110004E00002051000020900100204F000020A0
:104120005600002070B51E48067806B970BD0F2EE7
:1041300001D2304600E00F2004461A48007820449F
:10414000402804DD17480078C0F14000C4B2582070
:1041500004FB00F51349097801EB410202EBC101B0
:10416000114A02EBC1000122294601F0CBFEA84210
:1041700002D003200D4908700A48007820440949FC
:10418000087008460078402803DB0846007840386D
:10419000087003480078001B0149087000BFC5E79C
:1041A0005200002051000020900100204E0000200D
:1041B0002DE9F04186B004460D4616461F46DDF84F
:1041C000308017B11948874204D10E2C05DB06B0A8
:1041D000BDE8F0810E2C00DAF9E701A9012000F01A
:1041E0006FF8ADF80E400120ADF81000ADF81200E8
:1041F0008DF814800020ADF80C00C5F34F30ADF8F9
:104200000400042000EBC50080B2ADF80600C6F340
:104210004F30ADF80800042000EBC60080B2ADF8C6
:104220000A0001A8FFF70AFB00BFD0E700640040C6
:104230002DE9F04786B004460D4616461F46DDE9D7
:104240000F8ADDF83890B8F1000F02D01B48804586
:1042500004D10E2C05DB06B0BDE8F0870E2C00DA89
:10426000F9E701A9012000F02BF8ADF80E4001207C
:10427000ADF81000ADF812008DF814A00020ADF8D4
:104280000C004FF6FF7000EA4510ADF804004FF641
:10429000FF7000EA4610ADF806004FF6FF7000EA26
:1042A0004710ADF808004FF6FF7000EA4910ADF86E
:1042B0000A0001A8FFF7C2FA00BFCCE70064004083
:1042C00010B5024609B900BFFEE7052A65D2DFE84E
:1042D00002F0031521344B0000234B71CB718B711D
:1042E0004FF480634B8100230B724B7002238B7061
:1042F0000023CB700B714B720B7050E00123CB810C
:1043000000230B740B810B804B808B80CB808B81C7
:104310004B8144E04FF480638B8200230B740223B3
:104320004B7401238B7400238B70CB6001234B7083
:1043300000230B708B604B6031E000234B314B70DE
:104340008B7001F84B39002005E0002401F10B03CC
:104350001C54431CD8B24028F7D300238B724B6007
:104360000B724B720B601AE000234C314B708B7058
:1043700001F84C39002005E0002401F10B031C5426
:10438000431CD8B24028F7D300238B724B600B72CA
:1043900081F84B304B720B6001E000BFFEE700BFBD
:1043A00010BD10B502460B4600204FF6FF71012BE1
:1043B00017D1146824F002041460146844F0010456
:1043C000146000E0491E546804F001040CB900298F
:1043D000F8D1546804F001040CB9002034E0012045
:1043E00032E0022B13D1146824F00304146000E0BF
:1043F000491E546804F003040CB10029F8D1546834
:1044000004F003040CB100201EE001201CE0042B8A
:1044100019D1146824F001041460146844F00204F3
:10442000146000E0491E546804F00204022C01D01C
:104430000029F7D1546804F00204022C01D00020B6
:1044400002E0012000E0002010BD00000020014932
:10445000087070474A00002000200149087070472A
:104460004C0000200648008800046421B0FBF1F0F5
:10447000044909686422B1FBF2F108447047000066
:1044800044000020240C00400348016803480088D1
:1044900001EB004070470000240C00404400002065
:1044A00010B50346FFF7F0FF044603EB4300C0EBF3
:1044B000C31004EBC00405E0FFF7E6FF0246A2428A
:1044C00000D300E0F8E700BF10BD00B50246FFF7DB
:1044D000DBFF03460AB9012000E01046034400BF99
:1044E000FFF7D2FF9842FBD300BD000001461A4BF4
:1044F000CA1A994222D00FDCA1F54042A2F55472AB
:10450000B2B1A2F54042A2F554729AB1A2F5C042EE
:10451000A2F5D472D2B90FE0A2F57432A2F19002E2
:1045200072B10E4B1A446AB10D4B1A4472B90BE0CA
:104530000C480EE00C480CE00C480AE00C4808E07F
:104540000C4806E00C4804E00C4802E000BF00BF45
:10455000FEE700BF7047000090D00300206CFBFF17
:10456000C0F2FCFF3B003E001D003E0017003E0075
:104570000B003E0005003E0004002A0003002A0054
:1045800010B50146294BCA1A99423DD01EDC284B72
:10459000A1EB0302994231D010DCA1F54042A2F513
:1045A00054722AB3A2F54042A2F5547212B3A2F596
:1045B000C042A2F5D472002A33D11DE0A2F57432B4
:1045C000903AEAB11B4B1A445ABB1BE01A4C131B1E
:1045D000A2421FD005DC194B1A44BAB11A4402BBDF
:1045E00016E0164A1A44C2B1144B1A44CAB916E06E
:1045F000134819E0134817E0134815E0134813E077
:10460000134811E013480FE013480DE013480BE086
:10461000134809E04FF0021006E0124804E0124887
:1046200002E000BF00BFFEE700BF10BD40420F0028
:1046300090D00300206CFBFFC0C62D00C0BDF0FF72
:104640003B003E001D003E0017003E000B003E00F8
:1046500005003E0004002A0003002A0002001600A4
:104660000100160002000100010002002DE9FE43D6
:104670004FF001087B4800687A49091D884203D140
:10468000794C4FF0000801E0764C241D01F08AFCC3
:1046900000BF00BF002702A801AB012240F2024187
:1046A00000907248FEF728F907469DF80400032899
:1046B00006D140F20240874202D16C48467803E0BE
:1046C000FEF7A8F80028E5D100BF40F2024087427B
:1046D00065D19DF80400032803D1BDF80800C0B2DD
:1046E000B0B10F206249087000F0D8F902280ED14D
:1046F000012000F0EDFD00205E49087000F03CF95B
:104700003C2000F033F901F052FCBDE8FE83FCE7E9
:1047100000F0C4F902280BD05448007800B1F4E747
:10472000022000F0D5FD00205249087000F084F905
:104730004E4800784F49097888420DD0012000F09A
:10474000C7FD00204B49087000F016F93C2000F02E
:104750000DF901F02CFCD8E73C2000F007F92046C9
:1047600000F014F93C2000F001F9002508E03F4872
:10477000801C4159204600F071F9241D281D85B286
:10478000B5F5806FF3DB3C2000F0F0F83948007895
:10479000401CC0B237490870B04200D118E0032273
:1047A0000121344801F0AEFB002502E00A20FFF7AA
:1047B00077FE2846691C8DB2B0F5167F03DAFEF746
:1047C00029F80028F2D0FEF725F800B900E060E7EC
:1047D00000BF26484078401E24490978884235D1D8
:1047E00022484078B04231D13C2000F0BFF8224846
:1047F00000F0CCF83C2000F0B9F8B8F1000F02D07E
:10480000184C241D00E0184C2146164800F026F9EB
:1048100068B1012000F05CFD00201649087000F02E
:10482000ABF83C2000F0A2F801F0C1FB6DE73C20A2
:1048300000F09CF801F0BBFB5A20FEF745FC04E0B9
:10484000F022DB210D48FEF70DFCF9E700200949B5
:10485000087000F091F83C2000F088F801F0A7FB08
:1048600000BF52E7FC0F000800080108903000204C
:104870003F00002057000020000C000858000020D6
:1048800000240CE00648FFF720FE22464FF40051BA
:10489000044800F00DF90CB9012400E00024F1E710
:1048A00040420F000010014010B52C4B1B688343A1
:1048B0002A4C2360231D1B688343241D2360231D72
:1048C0001B688343241D2360231D1B688343241D11
:1048D000236011B101290ED105E0204B1B68034371
:1048E0001E4C236008E01D4B1B1D1B6803431B4C23
:1048F000241D236000E000BF00BF22B1012A0FD0B9
:10490000022A27D119E0154B08331B680343134CC7
:1049100008342360231D1B688343241D23601AE091
:104920000E4B08331B6883430C4C08342360231D53
:104930001B680343241D23600DE0084B08331B68EC
:104940000343064C08342360231D1B680343241DC6
:10495000236000E000BF00BF10BD00000004014064
:104960000149086070470000140401400149C86013
:1049700070470000002002400348006940F08000BA
:1049800001490861704700000020024070B50446EC
:104990004FF4801000F01EF80546B5B90C480069C8
:1049A00040F002000A49086108464461006940F08D
:1049B000400008614FF4801000F00CF805460448F0
:1049C000006920F0020002490861284670BD00001D
:1049D0000020024070B50546012400BF00F00CF82D
:1049E00004466D1E012C01D1002DF7D1012C00D100
:1049F0000524204670BD000000200E49C96801F062
:104A0000010109B1012013E00A49C96801F0100150
:104A100009B104200CE00749C96801F0040109B19B
:104A2000022005E00349C96801F0080101B1032033
:104A300070470000002002400548006900F0800037
:104A400020B10448024948600348486070470000AC
:104A50000020024023016745AB89EFCD70B50446C5
:104A60000D464FF48010FFF7B5FF06468EB90A4891
:104A7000006940F001000849086125604FF480108A
:104A8000FFF7A8FF06460448006920F0010002492C
:104A90000861304670BD00000020024001480078E7
:104AA000704700001D0000204161704701617047A0
:104AB0000AB1016100E041617047000010B50022B9
:104AC0008B071C0F0F2303FA04F204290EDA204B84
:104AD0009B6893431E4CA36023469B688C07240F5E
:104AE00000FA04F423431A4CA3602FE008290EDADD
:104AF000174BDB689343164CE3602346DB688C0757
:104B0000240F00FA04F42343114CE3601EE00C2947
:104B10000EDA0F4B1B6993430D4C236123461B692F
:104B20008C07240F00FA04F42343094C23610DE0A1
:104B3000074B5B699343064C636123465B698C07B3
:104B4000240F00FA04F42343014C636110BD0000FC
:104B500000000140F0B5044616460025002201F091
:104B60000F0501F0100747B1042E05D145F00305EC
:104B7000E76B1F43E76300E0354300201EE0012799
:104B800087401F40C7B122684FEA800C0F2707FA01
:104B90000CF7BA43870005FA07F73A43282904D1EE
:104BA000012787401F40676105E0482903D101279D
:104BB00087401F4027612260471CB8B20828DED317
:104BC000082022E0012787401F40E7B16268A0F17A
:104BD00008074FEA870C0F2707FA0CF7BA43A0F132
:104BE0000807BF0005FA07F73A43282904D101272F
:104BF00087401F40676105E0482903D101278740AE
:104C00001F4027616260471CB8B21028DAD3F0BD9C
:104C10000246D068084008B1012070470020FCE738
:104C2000F0B50A46002300240021002500F00046CC
:104C3000B6F1004F02D11D4EF16901E01B4E7168C3
:104C4000C0F3034583B200F44016B6F5401F08D107
:104C500021F0E061154E766826F0E066134F7E6025
:104C600012E000F48016B6F5801F06D1032606FA7E
:104C700005F4A14341F0E06106E0460D360103FA78
:104C800006F6B14341F0E06122B1460D360103FA68
:104C900006F6314300F00046B6F1004F02D1034E54
:104CA000F16101E0014E7160F0BD000000000140C3
:104CB0000448007804490978884201DB01207047E4
:104CC0000020FCE74A0000204B0000200448007848
:104CD00004490978884201DB012070470020FCE785
:104CE0004C0000204D00002098B09848006897497B
:104CF000091D884201D1012000E00020044662B66F
:104D000023E100F0BFF9FEF701FA4FF4A06000F0D4
:104D1000A5F900F071FC00F0F9FBFEF717FA552039
:104D2000FEF7D2F934B14FF4027201218848FEF740
:104D300099F905E04FF4027201218648FEF792F9D5
:104D40004FF400518448FFF7B1FE4FF48041824890
:104D5000FFF7ACFE00F064FF04A90320FFF7B0FAF0
:104D6000012004900220059000208DF819008DF894
:104D7000180008208DF81A0000208DF85B008DF8CF
:104D80005C008DF85D0040F211100590AA208DF8AE
:104D90001B00BB218DF81C10CC218DF81D10DD21CE
:104DA0008DF81E10EE218DF81F10FF2104A801744C
:104DB000002141741121817404A96848FFF708F8A3
:104DC0000E20FEF7AFFA0120644900221346CDE918
:104DD0000021029011461046FFF72AFA01205F4990
:104DE00000221346CDE9002102901146FFF720FA78
:104DF00001205B4900221346CDE9002102901146B3
:104E00001046FFF715FA0120554900221346CDE957
:104E10000021029011460F20FFF70AFA00F09CFFD4
:104E20006420FFF73DFB01214FF48B6001F096F801
:104E3000022140F2594001F091F8032140F25A401A
:104E400001F08CF84748007803280DD134B14FF4B5
:104E5000027203213E48FEF705F905E04FF40272A5
:104E600005213C48FEF7FEF8002000F031FA65E02D
:104E7000002504203B49087002E06420FFF710FB86
:104E8000022000F04BFF002808DC032000F046FF62
:104E9000002803DCFFF702FE0028EED0FEF73AFA06
:104EA0004FF4167203213048FEF7DCF800202F493A
:104EB000087005202B490870002000F009FA2AE04C
:104EC0002846691CCDB2FE281CD1FDF7DDFFFFF797
:104ED000FDFE10B1FFF7C0FA21E0FFF7E9FE80B157
:104EE000FFF7B4FA214800782149887021480078FA
:104EF00008701C4800784870032204211C4801F007
:104F000001F80025FFF70EF916480078052800D0B3
:104F100005E0FEF7F1FAFFF7C1FD0028D0D000BF91
:104F200000BFFFF7BBFD0228FBD0FEF7F3F94FF4FB
:104F3000167203211048FEF795F800BFFFF7AEFD8B
:104F4000002895D001F05CF800BFDAE6FC0F0008FD
:104F50001E000020210000200010014000640040DD
:104F6000006800403F000020260000204E00002086
:104F70002C0000201D0000202900002010B5002278
:104F80000121322000F014F810BD10B503221146A3
:104F90001E2000F00DF810BD00F01F02012191400D
:104FA000024A431142F823107047000080E100E0FC
:104FB0002DE9F04103460D46164600240027A04681
:104FC0002448006800F4E060B0F5A06F15D006DC5E
:104FD000B0F5407F18D0B0F5806F19D110E0B0F572
:104FE000C06F06D0B0F5E06F12D100274FF0040873
:104FF00015E001274FF0030811E00227B8460EE044
:1050000003274FF001080AE004274FF0000806E0EC
:105010004FF4A06000F022F80227B84600BF00BF9E
:10502000C7F1040005FA00F4C8F104010F20C840DC
:105030003040044324010848C45403F01F010120F8
:1050400088405911890001F1E021C1F80001BDE853
:10505000F08100000CED00E000E400E002490143B3
:10506000024A1160704700000000FA050CED00E0F4
:10507000024A0A400243024B1A60704780FFFF1F3A
:1050800008ED00E010B50020114908700E2011490C
:1050900008700020104908701049487008700120FD
:1050A0000F494870087000200E49487008700E487B
:1050B0000E49486008600E4948600860FEF7C2FF6C
:1050C00001200C49087000200B49087010BD000039
:1050D000000000200100002002000020030000204A
:1050E000050000200700002020A107000C00002080
:1050F000140000201D0000203F000020064A02EBA3
:105100009011096800F01F0301229A401143024BDD
:1051100003EB90121160704700100240064A02EB48
:105120009011096800F01F0301229A409143024B3D
:1051300003EB90121160704700100240064A02EB28
:105140009011096800F01F0301229A401143024B9D
:1051500003EB901211607047001002403EB502A8A8
:1051600001AB0122910200900B48FDF7C5FB0446FC
:10517000002C0EDD9DF80400022803D1BDF80800C4
:10518000C0B220B10F200549087000203EBDE0B23A
:10519000FCE70020FAE70000902C00203F000020F0
:1051A00070B5054620480078854201D0012000E016
:1051B000002004461C480570012D06D0022D0FD09A
:1051C000032D18D0042D2CD120E03CB1102117481C
:1051D000FFF76AFC08211548FFF766FC144870BD0C
:1051E0003CB110211148FFF761FC08210F48FFF77F
:1051F0005BFC0F48F3E73CB110210C48FFF754FC6F
:1052000008210A48FFF752FC0948E8E73CB11021A1
:105210000648FFF74BFC08210448FFF747FC044809
:10522000DDE70448DBE7000002000020000C01403D
:10523000006800400064004010B5FFF78FFF04468F
:10524000012C04D104490878FFF7AAFF02E00F20DF
:105250000249087010BD0000902C00203F00002083
:10526000FEB5FFF77BFF06461420B6FBF0F100FB0E
:10527000116020BB00251FE013484419E07840B1BD
:10528000A078009063782078D4E90112FEF790FFAF
:105290000FE0A0786178228A92B2CDE900210290D5
:1052A000A789BBB22789BAB2A788B9B22078FEF71E
:1052B000BFFF05F1140085B2B542DDDB02E00F202F
:1052C00002490870FEBD0000902C00203F00002025
:1052D00001490870704700001D00002070B5FFF7FD
:1052E0003DFF05460C20B5FBF0F100FB1150F8B96D
:1052F00000241AE0104A10190178022900DB11E09D
:1053000042780E4B5A5482780D4B5A54C2780D4B4A
:105310005A540D4B426843F821200C4B826843F8E5
:10532000212000BF04F10C0084B2AC42E2DB02E0B9
:105330000F200749087070BD902C0020030000204A
:1053400005000020070000200C00002014000020B1
:105350003F000020016841F04001016070470146B4
:10536000C86880B27047C1607047000010B504463D
:105370001348204470B1B0F5806F14D0B0F5784F69
:105380001AD14FF44370FFF7D9FE4FF44370FFF783
:10539000C5FE12E040F20E40FFF7D0FE40F20E4094
:1053A000FFF7BCFE09E040F20F40FFF7C7FE40F2F6
:1053B0000F40FFF7B3FE00E000BF00BF10BD0000CC
:1053C00000C8FFBF02469068084008B1012070473E
:1053D0000020FCE702460020106800F441500B68F2
:1053E00018434B6818438B681843CB6818430B6904
:1053F00018434B6918438B6918431060D36923F431
:105400000063D3617047000000200021374A126812
:1054100042F48032354B1A6000BF401C334A126898
:1054200002F4003119B94FF6FF729042F5D12F4ABC
:10543000126802F400320AB900BFFEE72C4A126873
:1054400022F00702D21C2A4B1A60284A5268274BC6
:105450005A601A4652685A601A46526842F480628C
:105460005A601A465268234B1A40204B5A601A461B
:105470005268214B1A431D4B5A601A46D26A1F4B81
:105480001A401A4BDA621A46D26A1D4B1A43174B5E
:10549000DA621A46126842F080621A6000BF134A4C
:1054A000126802F00062002AF9D0104A126842F035
:1054B00080720E4B1A6000BF0C4A126802F0007234
:1054C000002AF9D0094A526822F00302074B5A60B9
:1054D0001A46526842F002025A6000BF034A5268FC
:1054E00002F00802002AF9D07047000000100240C4
:1054F00000200240FFFFC3DF0000352000F0FEBFA8
:105500003908010010B5FFF77FFF10BD1FB54BF63E
:10551000803440F20270FFF7F1FD134800F048FAC2
:10552000684600F072FB601E80B2ADF800000020FB
:10553000ADF80200ADF80400042002900020ADF8A0
:105540000C006946084800F0FBFA0121064800F00B
:105550004DFB0121044800F045FBFFF716FD024812
:1055600000F0E8FA1FBD00000008004010B5184820
:105570000078401C1649087016480078002800DCA6
:1055800010BD14480078642191FBF0F010490978AF
:1055900088421BDC1048007808B900240CE04FF466
:1055A00080410E48FFF734FBC0F10100C4B20A4845
:1055B0000078401E0849087022464FF48041074891
:1055C000FFF776FA00200249087000BF00BFD7E756
:1055D000480000201C000020560000200010014060
:1055E00004200149086070472C08004063200149ED
:1055F000086070472C0800401FB57824194890FBBC
:10560000F4F04FF48031B1FBF0F01749087040F22C
:105610000370FFF773FD154800F0CAF9684600F003
:10562000F4FA601E80B2ADF800000020ADF8020070
:10563000ADF804004FF6FF7002900020ADF80C00AA
:1056400069460A4800F07CFA0121084800F0CEFAC9
:105650000121064800F0C6FAFFF790FC034800F06D
:1056600069FA1FBDC0D4010049000020000C0040B1
:1056700010B510480068401C0E4908600E480078BC
:1056800008B1FDF7C7FD0D4800780D49097888423B
:1056900004DA0A480078401C084908700948007874
:1056A00009490978884204DA06480078401C05490F
:1056B000087010BD44000020340100204A00002082
:1056C0004B0000204C0000204D000020016821F01C
:1056D000800101607047000010B531B101293FD051
:1056E00002297DD003297CD1BFE0036A23F00103A6
:1056F0000362036A148823430362036A23F00203EC
:105700000362036A9488234303626C4B984202D07D
:105710006B4B98421FD1036A23F004030362036AB0
:10572000548823430362036A23F008030362036A75
:10573000D48823430362436823F48073436043683F
:10574000148923434360436823F400734360436830
:10575000548923434360836923F003038361ABE0EF
:10576000036A23F010030362036A148843EA0413F4
:105770000362036A23F020030362036A948843EA06
:10578000041303624D4B984202D04D4B984223D1F3
:10579000036A23F040030362036A548843EA041354
:1057A0000362036A23F080030362036AD48843EA36
:1057B00004130362436823F48063436043681489DD
:1057C00043EA84034360436823F40063436043680F
:1057D000548943EA84034360836923F4407301E0FE
:1057E00002E068E0836167E0036A23F48073036288
:1057F000036A148843EA04230362036A23F40073F0
:105800000362036A948843EA042303622B4B9842A1
:1058100002D02B4B984223D1036A23F480630362A6
:10582000036A548843EA04230362036A23F400638F
:105830000362036AD48843EA04230362436823F4BF
:10584000805343604368148943EA04134360436808
:1058500023F4005343604368548943EA04134360CC
:10586000C36923F00303C36126E0036A23F4805372
:105870000362036A148843EA04330362036A23F46D
:1058800000530362036A948843EA043303620B4BB8
:10589000984202D00A4B984208D1436823F48043CF
:1058A00043604368148943EA84134360C36923F463
:1058B0004073C36100E000BF00BF10BD002C014079
:1058C0000034014031B101290CD0022913D0032941
:1058D00022D118E0836923F0700383618369134345
:1058E00083611AE0836923F4E0438361836943EAB7
:1058F0000223836111E0C36923F07003C361C369AC
:105900001343C36109E0C36923F4E043C361C3697E
:1059100043EA0223C36100E000BF00BF704731B11A
:10592000012906D0022906D0032908D105E04263E7
:1059300006E0826304E0C26302E0026400E000BFAC
:1059400000BF704731B101290CD0022913D00329BF
:1059500022D118E0836923F008038361836913432C
:1059600083611AE0836923F400638361836943EAF6
:105970000223836111E0C36923F00803C361C36993
:105980001343C36109E0C36923F40063C361C369BE
:1059900043EA0223C36100E000BF00BF704700215B
:1059A000018041808180C180018141817047000078
:1059B00010B504465C49601A8C426FD019DC5B4913
:1059C000A4EB01008C424ED009DCB4F1804F2ED004
:1059D00057482044A0B3B0F5806F72D13AE0B0F5DB
:1059E000806F49D0B0F5006F4FD0B0F5406FF4D163
:1059F0007BE0B0F5983F5BD009DCB0F5806F73D0E9
:105A0000B0F5883F0AD0B0F58C3F5AD147E0B0F5E9
:105A10009A3F57D0B0F59C3F53D15CE040F20B3039
:105A2000FFF78CFB40F20B30FFF778FB79E04FF487
:105A30008060FFF783FB4FF48060FFF76FFB70E03F
:105A4000FFE740F20140FFF779FB40F20140FFF72A
:105A500065FB66E040F20240FFF770FB40F2024057
:105A6000FFF75CFB5DE040F20340FFF767FB40F2AD
:105A70000340FFF753FB54E040F20440FFF75EFBA6
:105A800040F20440FFF74AFB4BE040F20540FFF7CD
:105A900055FB40F20540FFF741FB42E02EE040F2AB
:105AA0000D30FFF74BFB40F20D30FFF737FB38E0CE
:105AB00040F21330FFF742FB40F21330FFF72EFBAA
:105AC0002FE02DE04FF44570FFF738FB4FF44570A1
:105AD000FFF724FB25E040F21530FFF72FFB40F2E3
:105AE0001530FFF71BFB1CE011E040F20640FFF70A
:105AF00025FB40F20640FFF711FB12E040F20740A1
:105B0000FFF71CFB40F20740FFF708FB09E04FF4EA
:105B10008160FFF713FB4FF48160FFF7FFFA00E0AD
:105B200000BF00BF10BD0000001C0040000C004082
:105B300000FCFFBF016841F00101016070470000F7
:105B40000A888262204A90420ED0B0F1804F0BD07A
:105B50001E4A904208D01E4A904205D01D4A9042EB
:105B600002D01D4A90420FD1026822F070020260FA
:105B700002688B7803F060031A43026002680B79B5
:105B800003F010031A4302608A68C262134A90420B
:105B90000CD0134A904209D0026822F4407202608D
:105BA00002688B8903F440731A430260064A9042EC
:105BB00002D0094A904201D18A7B0263426942F0D5
:105BC0000102426170470000002C014000040040C7
:105BD00000080040000C004000340140001000406C
:105BE00000140040C2680A43C2607047CA430261A1
:105BF0007047012904D1426C42F40042426403E040
:105C0000426C22F4004242647047002101804180CE
:105C100081804FF6FF71816000218181817370471F
:105C200010B5FDF7CDFEFDF7A9FC0120FFF7B8FA8E
:105C300010BD000010B50648FDF752FD0548FDF700
:105C40004FFD1420FFF7A8F94020FFF7A5F910BD7C
:105C5000006400400068004001B59DF800000C2879
:105C600053D2DFE800F052060E16252D353D454E85
:105C7000524FFFF7E1FA02220121684600F042F993
:105C800044E0FFF7EDFA02220121684600F03AF9FC
:105C90003CE01F49097809B91E4900E01E49084641
:105CA000FDF75CFB02220121684600F02BF92DE094
:105CB000FEF7C8F902220121684600F023F925E029
:105CC000FFF7AEFF02220121684600F01BF91DE03C
:105CD000FFF7B0FF02220121684600F013F915E03A
:105CE000FFF7FCFA02220121684600F00BF90DE0F3
:105CF0000120FFF7EDFA02220121684600F002F9C7
:105D000004E003E0FEF7B2FC00E000BF00BF08BD06
:105D1000902C002000640040006800401FB504463D
:105D200001200390002000900190034603AA094936
:105D300002902046FCF777FD9DF80C00032806DB57
:105D40009DF80C00052802DC012004B010BD0020E5
:105D5000FBE7000040000020FEB503250020474976
:105D6000087000F05BF923E000F0A6F80020FDF7D2
:105D700009F90520FEF794FB00F020F90420FDF757
:105D8000E1F80020FDF7DEF8412803D006203B496A
:105D90000870FEBD02AA3A493A48FCF767FB18B9F9
:105DA00007203649087003E001203449087004E0F8
:105DB000281EA5F101018DB2D6DC00BF2F48007866
:105DC00001281CD102AA00212F480078FCF7ECFE24
:105DD00010B909202949087002A901A8FCF7F2FCB2
:105DE00028B19DF8040028490978884203D0092089
:105DF0002249087002E002202049087000BF1F48B5
:105E00000078022837D1214800682049091D096817
:105E100008441E4908310968461805240BE0611F33
:105E20001C22A2EB810126FA01F0FDF77DF818494A
:105E30000855601CC4B20D2CF1DB02A8002106231A
:105E40000422CDE9001013A11148FCF78BFB70B9B7
:105E500002A8002101230422CDE9001010A113A003
:105E6000FCF780FB30B90A200449087002E00320E7
:105E70000249087000BF00BF8BE700003F00002010
:105E8000C0E1E4000030014030000020E8F7FF1FCF
:105E90003100002031313131313131310000000029
:105EA000313233343536373839300000416E796C51
:105EB000696E6B696E00000010B500221021104859
:105EC000FEF7F6FD0120FEF7EBFA002220210C4838
:105ED000FEF7EEFD0520FEF7E3FA01222021084837
:105EE000FEF7E6FD4FF49670FEF7DAFA0122102174
:105EF0000348FEF7DDFD4FF4C870FEF7D1FA10BD80
:105F000000100140F8B506460C46174620E040F266
:105F1000B450844207DC6B463A4621463046FBF7D4
:105F200067FC051E13D1BDF8000000F01200122816
:105F300000D10DE0BDF8000000F01800182802D1D3
:105F40000C20054908700D200349087001E000E0AD
:105F5000DDE700BF2846F8BD3F0000207FB50546BD
:105F60000C4603AA04212046FCF7C6FB18B90B20F7
:105F7000094908700EE003A80D21002307A2CDE90E
:105F80000041029029460220FCF74EFE10B90B207A
:105F9000014908707FBD00003F000020312E312EE6
:105FA000312E310010B50A20FEF7F6FF10BD10B5F6
:105FB000012211460A20FEF7FBFF10BD10B50A2092
:105FC000FEF7EAFF40F20260FFF798F81023032281
:105FD00004210A48FEF7BEFD04210020FEF76EFDF5
:105FE000012211460A20FEF7E3FF0022114610208D
:105FF000FEF75AFC1020FEF7B3FC10BD000801406C
:1060000010B5002220210448FEF752FD4FF4FA702B
:10601000FEF746FA10BD00000010014000B587B041
:1060200040F20C60FFF76AF840F20260FFF766F892
:1060300040F20460FFF762F84FF4C060FFF75EF8CB
:10604000A023032218211948FEF784FD40230322D0
:1060500004211648FEF77EFD302303221021144848
:10606000FEF778FD10211248FEF720FD2021104890
:10607000FEF71AFD0F48FFF779F9002001904FF461
:10608000827000900020029005904FF40070039001
:10609000102006900020049069460648FFF79AF900
:1060A0000448FFF757F907B000BD000000080140A1
:1060B00000100140003001400C10141820304053F3
:1060C000544D3332463200000000000000000056FC
:1060D000312E312E382D58000041494B5BDB4131C8
:1060E0002E322E302D3100312E312E382D3100310F
:1060F0002E312E362D3300312E312E362D340031F7
:106100002E312E362D35003235352E3235352E32A4
:1061100035352E32353500312E312E362D450031B4
:106120002E312E362D4600312E312E362D4E003199
:106130002E312E382D5200312E312E382D580000A0
:10614000606100080000002090010000281900088C
:10615000346200089001002010380000543000081C
:10616000011C121412161B160F0540081A081115EF
:10617000151108580802446663722D300121A201EE
:10618000123CA2C815090806085904AB0605101CE4
:106190000A09084A2F05060A0A0A0903230C0A29D4
:1061A0000C1C090908250B100A093C192C120C3A81
:1061B0000C04393C1929192F1A082A1B0806112B1F
:1061C0000608152A0B3A1A0C22130A062955590EED
:1061D0002B08050E1A092119351B0C0D46296B29B0
:1061E0000E2902397D0928352A0577312264100AE3
:1061F0007D0154012F011E01FF12E312CA12BF12CA
:10620000AA1297128F127F12711265125F12551225
:106210004B1247123F12381232122F122A12251235
:1062200023121F121C92191B312E02A32D311401AF
:046230000201220441
:04000005080011518D
:00000001FF
